{
  "contractName": "TinyProxy",
  "abi": [
    {
      "constant": false,
      "inputs": [],
      "name": "release",
      "outputs": [],
      "payable": false,
      "stateMutability": "nonpayable",
      "type": "function"
    },
    {
      "inputs": [
        {
          "name": "to",
          "type": "address"
        },
        {
          "name": "gas",
          "type": "uint256"
        }
      ],
      "payable": false,
      "stateMutability": "nonpayable",
      "type": "constructor"
    },
    {
      "payable": true,
      "stateMutability": "payable",
      "type": "fallback"
    },
    {
      "anonymous": false,
      "inputs": [
        {
          "indexed": false,
          "name": "to",
          "type": "address"
        },
        {
          "indexed": false,
          "name": "gas",
          "type": "uint256"
        }
      ],
      "name": "ProxyCreated",
      "type": "event"
    },
    {
      "anonymous": false,
      "inputs": [
        {
          "indexed": false,
          "name": "to",
          "type": "address"
        },
        {
          "indexed": false,
          "name": "amount",
          "type": "uint256"
        }
      ],
      "name": "FundsReleased",
      "type": "event"
    }
  ],
  "bytecode": "0x6060604052341561000f57600080fd5b6040516040806102a5833981016040528080519060200190919080519060200190919050507f6c6ffd7df9a0cfaa14ee2cf752003968de6c340564276242aa48ca641b09bce48282604051808373ffffffffffffffffffffffffffffffffffffffff1673ffffffffffffffffffffffffffffffffffffffff1681526020018281526020019250505060405180910390a1816000806101000a81548173ffffffffffffffffffffffffffffffffffffffff021916908373ffffffffffffffffffffffffffffffffffffffff1602179055508060018190555050506101ae806100f76000396000f300606060405260043610610041576000357c0100000000000000000000000000000000000000000000000000000000900463ffffffff16806386d1a69f14610043575b005b341561004e57600080fd5b610056610058565b005b60003073ffffffffffffffffffffffffffffffffffffffff163190507f221c08a06b07a64803b3787861a3f276212fcccb51c2e6234077a9b8cb13047a6000809054906101000a900473ffffffffffffffffffffffffffffffffffffffff1682604051808373ffffffffffffffffffffffffffffffffffffffff1673ffffffffffffffffffffffffffffffffffffffff1681526020018281526020019250505060405180910390a16000600154111561011d576000809054906101000a90505061017f565b6000809054906101000a900473ffffffffffffffffffffffffffffffffffffffff1673ffffffffffffffffffffffffffffffffffffffff166108fc829081150290604051600060405180830381858888f19350505050151561017e57600080fd5b5b505600a165627a7a723058204eafa89125ebc22206af46d17837144c84b53d672196b6697a5b2a03292792a30029",
  "source": "pragma solidity ^0.4.17;\n\ncontract TinyProxy {\n  address proxyTo;\n  uint gasToSend;\n\n  event ProxyCreated(address to, uint gas);\n\n  function TinyProxy(address to, uint gas) public {\n    ProxyCreated(to, gas);\n    proxyTo = to;\n    gasToSend = gas;\n  }\n\n  function () payable public { }\n\n  event FundsReleased(address to, uint amount);\n\n  function release() public {\n    uint balance = address(this).balance;\n    FundsReleased(proxyTo, balance);\n    if(gasToSend > 0){\n      proxyTo.call.gas(gasToSend).value(balance);\n    } else {\n      proxyTo.transfer(balance);\n    }\n  }\n}\n",
  "sourcePath": "/home/micah/dev/TinyProxyContract/contracts/TinyProxy.sol",
  "compiler": {
    "name": "solc",
    "version": "0.4.18+commit.9cf6e910.Emscripten.clang"
  },
  "schemaVersion": "1.0.1",
  "updatedAt": "2018-03-23T03:31:29.747Z"
}