{
  "contractName": "TinyProxyFactory",
  "abi": [
    {
      "constant": false,
      "inputs": [
        {
          "name": "to",
          "type": "address"
        },
        {
          "name": "gas",
          "type": "uint256"
        },
        {
          "name": "track",
          "type": "bool"
        }
      ],
      "name": "make",
      "outputs": [
        {
          "name": "proxy",
          "type": "address"
        }
      ],
      "payable": false,
      "stateMutability": "nonpayable",
      "type": "function"
    },
    {
      "constant": true,
      "inputs": [
        {
          "name": "",
          "type": "address"
        },
        {
          "name": "",
          "type": "address"
        }
      ],
      "name": "proxyFor",
      "outputs": [
        {
          "name": "",
          "type": "address"
        }
      ],
      "payable": false,
      "stateMutability": "view",
      "type": "function"
    }
  ],
  "bytecode": "0x6060604052341561000f57600080fd5b6106d68061001e6000396000f30060606040526004361061004c576000357c0100000000000000000000000000000000000000000000000000000000900463ffffffff16806386d9b0c514610051578063eb1e4488146100de575b600080fd5b341561005c57600080fd5b61009c600480803573ffffffffffffffffffffffffffffffffffffffff169060200190919080359060200190919080351515906020019091905050610176565b604051808273ffffffffffffffffffffffffffffffffffffffff1673ffffffffffffffffffffffffffffffffffffffff16815260200191505060405180910390f35b34156100e957600080fd5b610134600480803573ffffffffffffffffffffffffffffffffffffffff1690602001909190803573ffffffffffffffffffffffffffffffffffffffff1690602001909190505061035f565b604051808273ffffffffffffffffffffffffffffffffffffffff1673ffffffffffffffffffffffffffffffffffffffff16815260200191505060405180910390f35b600083836101826103a1565b808373ffffffffffffffffffffffffffffffffffffffff1673ffffffffffffffffffffffffffffffffffffffff16815260200182815260200192505050604051809103906000f08015156101d557600080fd5b9050818015610295575060008060008673ffffffffffffffffffffffffffffffffffffffff1673ffffffffffffffffffffffffffffffffffffffff16815260200190815260200160002060003373ffffffffffffffffffffffffffffffffffffffff1673ffffffffffffffffffffffffffffffffffffffff16815260200190815260200160002060009054906101000a900473ffffffffffffffffffffffffffffffffffffffff1673ffffffffffffffffffffffffffffffffffffffff16145b1561035557806000803373ffffffffffffffffffffffffffffffffffffffff1673ffffffffffffffffffffffffffffffffffffffff16815260200190815260200160002060008673ffffffffffffffffffffffffffffffffffffffff1673ffffffffffffffffffffffffffffffffffffffff16815260200190815260200160002060006101000a81548173ffffffffffffffffffffffffffffffffffffffff021916908373ffffffffffffffffffffffffffffffffffffffff1602179055505b8090509392505050565b60006020528160005260406000206020528060005260406000206000915091509054906101000a900473ffffffffffffffffffffffffffffffffffffffff1681565b6040516102f9806103b28339019056006060604052341561000f57600080fd5b6040516040806102f983398101604052808051906020019091908051906020019091905050816000806101000a81548173ffffffffffffffffffffffffffffffffffffffff021916908373ffffffffffffffffffffffffffffffffffffffff16021790555080600181905550505061026d8061008c6000396000f300606060405260043610610057576000357c0100000000000000000000000000000000000000000000000000000000900463ffffffff16806386d1a69f146100595780638e1d16cb1461006e578063f7260d3e14610097575b005b341561006457600080fd5b61006c6100ec565b005b341561007957600080fd5b610081610216565b6040518082815260200191505060405180910390f35b34156100a257600080fd5b6100aa61021c565b604051808273ffffffffffffffffffffffffffffffffffffffff1673ffffffffffffffffffffffffffffffffffffffff16815260200191505060405180910390f35b60003073ffffffffffffffffffffffffffffffffffffffff163190507f221c08a06b07a64803b3787861a3f276212fcccb51c2e6234077a9b8cb13047a6000809054906101000a900473ffffffffffffffffffffffffffffffffffffffff1682604051808373ffffffffffffffffffffffffffffffffffffffff1673ffffffffffffffffffffffffffffffffffffffff1681526020018281526020019250505060405180910390a1600060015411156101b1576000809054906101000a905050610213565b6000809054906101000a900473ffffffffffffffffffffffffffffffffffffffff1673ffffffffffffffffffffffffffffffffffffffff166108fc829081150290604051600060405180830381858888f19350505050151561021257600080fd5b5b50565b60015481565b6000809054906101000a900473ffffffffffffffffffffffffffffffffffffffff16815600a165627a7a72305820a9208175f621dc33198f2e384487c9073eab050d0b428213cd318f42ea45b81e0029a165627a7a7230582006d891a1aa4ab8bbb32b828de27557058c1c0852a3e838674f1d7fbbefae60490029",
  "source": "pragma solidity ^0.4.17;\nimport \"./TinyProxy.sol\";\n\ncontract TinyProxyFactory {\n  mapping(address => mapping(address => address)) public proxyFor;\n\n  function make(address to, uint gas,  bool track) public returns(address proxy){\n    proxy = new TinyProxy(to, gas);\n    if(track && proxyFor[to][msg.sender] == 0x0) {\n     proxyFor[msg.sender][to] = proxy; \n    } \n    return proxy;\n  }\n}\n",
  "sourcePath": "/home/micah/dev/splitcoin/src/blockchain/TinyProxyContract/contracts/TinyProxyFactory.sol",
  "compiler": {
    "name": "solc",
    "version": "0.4.18+commit.9cf6e910.Emscripten.clang"
  },
  "schemaVersion": "1.0.1",
  "updatedAt": "2018-03-26T23:10:43.505Z"
}