{
  "contractName": "TinyProxy",
  "abi": [
    {
      "constant": false,
      "inputs": [],
      "name": "release",
      "outputs": [],
      "payable": false,
      "stateMutability": "nonpayable",
      "type": "function"
    },
    {
      "constant": true,
      "inputs": [],
      "name": "gasBudget",
      "outputs": [
        {
          "name": "",
          "type": "uint256"
        }
      ],
      "payable": false,
      "stateMutability": "view",
      "type": "function"
    },
    {
      "constant": true,
      "inputs": [],
      "name": "receiver",
      "outputs": [
        {
          "name": "",
          "type": "address"
        }
      ],
      "payable": false,
      "stateMutability": "view",
      "type": "function"
    },
    {
      "inputs": [
        {
          "name": "toAddr",
          "type": "address"
        },
        {
          "name": "proxyGas",
          "type": "uint256"
        }
      ],
      "payable": false,
      "stateMutability": "nonpayable",
      "type": "constructor"
    },
    {
      "payable": true,
      "stateMutability": "payable",
      "type": "fallback"
    },
    {
      "anonymous": false,
      "inputs": [
        {
          "indexed": false,
          "name": "to",
          "type": "address"
        },
        {
          "indexed": false,
          "name": "amount",
          "type": "uint256"
        }
      ],
      "name": "FundsReleased",
      "type": "event"
    }
  ],
  "bytecode": "0x6060604052341561000f57600080fd5b6040516040806102f983398101604052808051906020019091908051906020019091905050816000806101000a81548173ffffffffffffffffffffffffffffffffffffffff021916908373ffffffffffffffffffffffffffffffffffffffff16021790555080600181905550505061026d8061008c6000396000f300606060405260043610610057576000357c0100000000000000000000000000000000000000000000000000000000900463ffffffff16806386d1a69f146100595780638e1d16cb1461006e578063f7260d3e14610097575b005b341561006457600080fd5b61006c6100ec565b005b341561007957600080fd5b610081610216565b6040518082815260200191505060405180910390f35b34156100a257600080fd5b6100aa61021c565b604051808273ffffffffffffffffffffffffffffffffffffffff1673ffffffffffffffffffffffffffffffffffffffff16815260200191505060405180910390f35b60003073ffffffffffffffffffffffffffffffffffffffff163190507f221c08a06b07a64803b3787861a3f276212fcccb51c2e6234077a9b8cb13047a6000809054906101000a900473ffffffffffffffffffffffffffffffffffffffff1682604051808373ffffffffffffffffffffffffffffffffffffffff1673ffffffffffffffffffffffffffffffffffffffff1681526020018281526020019250505060405180910390a1600060015411156101b1576000809054906101000a905050610213565b6000809054906101000a900473ffffffffffffffffffffffffffffffffffffffff1673ffffffffffffffffffffffffffffffffffffffff166108fc829081150290604051600060405180830381858888f19350505050151561021257600080fd5b5b50565b60015481565b6000809054906101000a900473ffffffffffffffffffffffffffffffffffffffff16815600a165627a7a72305820a9208175f621dc33198f2e384487c9073eab050d0b428213cd318f42ea45b81e0029",
  "source": "pragma solidity ^0.4.17;\n\ncontract TinyProxy {\n  address public receiver;\n  uint public gasBudget;\n\n  function TinyProxy(address toAddr, uint proxyGas) public {\n    receiver = toAddr;\n    gasBudget = proxyGas;\n  }\n\n  function () payable public { }\n\n  event FundsReleased(address to, uint amount);\n\n  function release() public {\n    uint balance = address(this).balance;\n    FundsReleased(receiver, balance);\n    if(gasBudget > 0){\n      receiver.call.gas(gasBudget).value(balance);\n    } else {\n      receiver.transfer(balance);\n    }\n  }\n}\n",
  "sourcePath": "/home/micah/dev/splitcoin/src/blockchain/TinyProxyContract/contracts/TinyProxy.sol",
  "compiler": {
    "name": "solc",
    "version": "0.4.18+commit.9cf6e910.Emscripten.clang"
  },
  "schemaVersion": "1.0.1",
  "updatedAt": "2018-03-26T23:10:43.512Z"
}