{
  "contractName": "TinyProxyFactory",
  "abi": [
    {
      "constant": false,
      "inputs": [
        {
          "name": "to",
          "type": "address"
        },
        {
          "name": "gas",
          "type": "uint256"
        },
        {
          "name": "track",
          "type": "bool"
        }
      ],
      "name": "make",
      "outputs": [],
      "payable": false,
      "stateMutability": "nonpayable",
      "type": "function"
    }
  ],
  "bytecode": "0x6060604052341561000f57600080fd5b6105598061001e6000396000f300606060405260043610610041576000357c0100000000000000000000000000000000000000000000000000000000900463ffffffff16806386d9b0c514610046575b600080fd5b341561005157600080fd5b610091600480803573ffffffffffffffffffffffffffffffffffffffff169060200190919080359060200190919080351515906020019091905050610093565b005b6000838361009f610278565b808373ffffffffffffffffffffffffffffffffffffffff1673ffffffffffffffffffffffffffffffffffffffff16815260200182815260200192505050604051809103906000f08015156100f257600080fd5b90508180156101b2575060008060008673ffffffffffffffffffffffffffffffffffffffff1673ffffffffffffffffffffffffffffffffffffffff16815260200190815260200160002060003373ffffffffffffffffffffffffffffffffffffffff1673ffffffffffffffffffffffffffffffffffffffff16815260200190815260200160002060009054906101000a900473ffffffffffffffffffffffffffffffffffffffff1673ffffffffffffffffffffffffffffffffffffffff16145b1561027257806000803373ffffffffffffffffffffffffffffffffffffffff1673ffffffffffffffffffffffffffffffffffffffff16815260200190815260200160002060008673ffffffffffffffffffffffffffffffffffffffff1673ffffffffffffffffffffffffffffffffffffffff16815260200190815260200160002060006101000a81548173ffffffffffffffffffffffffffffffffffffffff021916908373ffffffffffffffffffffffffffffffffffffffff1602179055505b50505050565b6040516102a5806102898339019056006060604052341561000f57600080fd5b6040516040806102a5833981016040528080519060200190919080519060200190919050507f6c6ffd7df9a0cfaa14ee2cf752003968de6c340564276242aa48ca641b09bce48282604051808373ffffffffffffffffffffffffffffffffffffffff1673ffffffffffffffffffffffffffffffffffffffff1681526020018281526020019250505060405180910390a1816000806101000a81548173ffffffffffffffffffffffffffffffffffffffff021916908373ffffffffffffffffffffffffffffffffffffffff1602179055508060018190555050506101ae806100f76000396000f300606060405260043610610041576000357c0100000000000000000000000000000000000000000000000000000000900463ffffffff16806386d1a69f14610043575b005b341561004e57600080fd5b610056610058565b005b60003073ffffffffffffffffffffffffffffffffffffffff163190507f221c08a06b07a64803b3787861a3f276212fcccb51c2e6234077a9b8cb13047a6000809054906101000a900473ffffffffffffffffffffffffffffffffffffffff1682604051808373ffffffffffffffffffffffffffffffffffffffff1673ffffffffffffffffffffffffffffffffffffffff1681526020018281526020019250505060405180910390a16000600154111561011d576000809054906101000a90505061017f565b6000809054906101000a900473ffffffffffffffffffffffffffffffffffffffff1673ffffffffffffffffffffffffffffffffffffffff166108fc829081150290604051600060405180830381858888f19350505050151561017e57600080fd5b5b505600a165627a7a723058204eafa89125ebc22206af46d17837144c84b53d672196b6697a5b2a03292792a30029a165627a7a723058207100ffcfc511d79d6fa57c5fe169c42e1ecac305537b595e7f89e59bb7224f490029",
  "source": "pragma solidity ^0.4.17;\nimport \"./TinyProxy.sol\";\n\ncontract TinyProxyFactory {\n  mapping(address => mapping(address => address)) proxyFor;\n\n  function make(address to, uint gas,  bool track) public {\n    address proxy = new TinyProxy(to, gas);\n    if(track && proxyFor[to][msg.sender] == 0x0) {\n     proxyFor[msg.sender][to] = proxy; \n    } \n  }\n}\n",
  "sourcePath": "/home/micah/dev/TinyProxyContract/contracts/TinyProxyFactory.sol",
  "compiler": {
    "name": "solc",
    "version": "0.4.18+commit.9cf6e910.Emscripten.clang"
  },
  "schemaVersion": "1.0.1",
  "updatedAt": "2018-03-23T03:31:29.747Z"
}